{
  "address": "mk8cJh83q2JKBNguuzamfN1LZ9aECtnVJ7",
  "total_received": 296651459,
  "total_sent": 19247412,
  "balance": 277404047,
  "unconfirmed_balance": 0,
  "final_balance": 277404047,
  "n_tx": 26,
  "unconfirmed_n_tx": 0,
  "final_n_tx": 26,
  "hasMore": true,
  "txs": [
    {
      "block_hash": "00000000955f2204199ffcaf0a124be4209f83cd9241afefcd2d3969d7835f72",
      "block_height": 1257059,
      "block_index": 33,
      "hash": "d9b495951954e29aa4f07dacdeef7f858d1f5e0099009ac159496375c427c99e",
      "hex": "01000000015ee14c71e3d2154e4276b9d9cf4208aaebc40e1deac10c36431fe0e3e450c677010000006b4830450221008cf7d9feb541c384522743b3a1522c23d980d2685dc2c563efa0ca09512b198e022069ec4ceb9a96ff8f17dc09ef1788f200e15ff1c7a8eaaade5925e1f97601a79d0121036d6e6cf57a88d39fee39b88721dcd5afbb18e5d078888293eaf5eee2fbc4cd36ffffffff050000000000000000236a21036d6e6cf57a88d39fee39b88721dcd5afbb18e5d078888293eaf5eee2fbc4cd360000000000000000086a06001e7465737440420f00000000001976a914329ecab2c7fc540c96295a507a367a46a0ee649488ac40420f000000000017a914758bf3334f7cb10bd7382a919aada2b726a5b9cc87a481ed0c000000001976a914329ecab2c7fc540c96295a507a367a46a0ee649488ac00000000",
      "addresses": [
        "2N3xkhdBk7EXm5LneyH4pCnbQA3jamrdeaV",
        "mk8cJh83q2JKBNguuzamfN1LZ9aECtnVJ7"
      ],
      "total": 218891812,
      "fees": 39588,
      "size": 319,
      "preference": "low",
      "relayed_by": "208.82.23.199:18333",
      "confirmed": "2018-01-02T02:42:49Z",
      "received": "2018-01-02T02:26:07.619Z",
      "ver": 1,
      "double_spend": false,
      "vin_sz": 1,
      "vout_sz": 5,
      "data_protocol": "unknown",
      "confirmations": 14,
      "confidence": 1,
      "inputs": [
        {
          "prev_hash": "77c650e4e3e01f43360cc1ea1d0ec4ebaa0842cfd9b976424e15d2e3714ce15e",
          "output_index": 1,
          "script": "4830450221008cf7d9feb541c384522743b3a1522c23d980d2685dc2c563efa0ca09512b198e022069ec4ceb9a96ff8f17dc09ef1788f200e15ff1c7a8eaaade5925e1f97601a79d0121036d6e6cf57a88d39fee39b88721dcd5afbb18e5d078888293eaf5eee2fbc4cd36",
          "output_value": 218931400,
          "sequence": 4294967295,
          "addresses": [
            "mk8cJh83q2JKBNguuzamfN1LZ9aECtnVJ7"
          ],
          "script_type": "pay-to-pubkey-hash",
          "age": 1257056
        }
      ],
      "outputs": [
        {
          "value": 0,
          "script": "6a21036d6e6cf57a88d39fee39b88721dcd5afbb18e5d078888293eaf5eee2fbc4cd36",
          "addresses": null,
          "script_type": "null-data",
          "data_hex": "036d6e6cf57a88d39fee39b88721dcd5afbb18e5d078888293eaf5eee2fbc4cd36"
        },
        {
          "value": 0,
          "script": "6a06001e74657374",
          "addresses": null,
          "script_type": "null-data",
          "data_hex": "001e74657374"
        },
        {
          "value": 1000000,
          "script": "76a914329ecab2c7fc540c96295a507a367a46a0ee649488ac",
          "addresses": [
            "mk8cJh83q2JKBNguuzamfN1LZ9aECtnVJ7"
          ],
          "script_type": "pay-to-pubkey-hash"
        },
        {
          "value": 1000000,
          "script": "a914758bf3334f7cb10bd7382a919aada2b726a5b9cc87",
          "addresses": [
            "2N3xkhdBk7EXm5LneyH4pCnbQA3jamrdeaV"
          ],
          "script_type": "pay-to-script-hash"
        },
        {
          "value": 216891812,
          "script": "76a914329ecab2c7fc540c96295a507a367a46a0ee649488ac",
          "addresses": [
            "mk8cJh83q2JKBNguuzamfN1LZ9aECtnVJ7"
          ],
          "script_type": "pay-to-pubkey-hash"
        }
      ]
    },
    {
      "block_hash": "00000000000000bb0b1b46d6b274da2a059bfec27fd438e3d94b5ef211a2f095",
      "block_height": 1257056,
      "block_index": 33,
      "hash": "77c650e4e3e01f43360cc1ea1d0ec4ebaa0842cfd9b976424e15d2e3714ce15e",
      "hex": "0100000001838c06617c1b3b46dfb6ffcd6105db1eb85f6c447c938ba848a8aa9749fc9a17040000006a47304402201275b547a2a952a9c7eadfdc0431480be94fa79ce4157f65c6eaeefdeb8d65a0022076252b703ffb512da3ad62ba721ba153e6126c787df092f472e4474e822adc220121036d6e6cf57a88d39fee39b88721dcd5afbb18e5d078888293eaf5eee2fbc4cd36fdffffff0280f0fa02000000001976a914329ecab2c7fc540c96295a507a367a46a0ee649488acc8a00c0d000000001976a914329ecab2c7fc540c96295a507a367a46a0ee649488ac5f2e1300",
      "addresses": [
        "mk8cJh83q2JKBNguuzamfN1LZ9aECtnVJ7"
      ],
      "total": 268931400,
      "fees": 284,
      "size": 225,
      "preference": "low",
      "relayed_by": "192.41.136.217:18333",
      "confirmed": "2018-01-02T02:00:12Z",
      "received": "2018-01-02T01:53:48.612Z",
      "ver": 1,
      "lock_time": 1257055,
      "double_spend": false,
      "vin_sz": 1,
      "vout_sz": 2,
      "opt_in_rbf": true,
      "confirmations": 17,
      "confidence": 1,
      "inputs": [
        {
          "prev_hash": "179afc4997aaa848a88b937c446c5fb81edb0561cdffb6df463b1b7c61068c83",
          "output_index": 4,
          "script": "47304402201275b547a2a952a9c7eadfdc0431480be94fa79ce4157f65c6eaeefdeb8d65a0022076252b703ffb512da3ad62ba721ba153e6126c787df092f472e4474e822adc220121036d6e6cf57a88d39fee39b88721dcd5afbb18e5d078888293eaf5eee2fbc4cd36",
          "output_value": 268931684,
          "sequence": 4294967293,
          "addresses": [
            "mk8cJh83q2JKBNguuzamfN1LZ9aECtnVJ7"
          ],
          "script_type": "pay-to-pubkey-hash",
          "age": 1256602
        }
      ],
      "outputs": [
        {
          "value": 50000000,
          "script": "76a914329ecab2c7fc540c96295a507a367a46a0ee649488ac",
          "addresses": [
            "mk8cJh83q2JKBNguuzamfN1LZ9aECtnVJ7"
          ],
          "script_type": "pay-to-pubkey-hash"
        },
        {
          "value": 218931400,
          "script": "76a914329ecab2c7fc540c96295a507a367a46a0ee649488ac",
          "addresses": [
            "mk8cJh83q2JKBNguuzamfN1LZ9aECtnVJ7"
          ],
          "script_type": "pay-to-pubkey-hash"
        }
      ]
    },
    {
      "block_hash": "00000000c276b146ce483963c742d316f5ccd3fea562cfb952643a47e6c984b5",
      "block_height": 1257055,
      "block_index": 43,
      "hash": "794f212860b0b2f269ace5d32f839d6abfe5b29d62e4570549dd026d1de447e9",
      "hex": "0200000001c52925cf77a9da31da59226df2caa33a50adf31666941ea1939e2aa8d0e25e090300000098483045022100ac368ec973aebf89ff66cfa157afa87cf2672ca54bdc83075df0286a8f28ef9402200446a314fdb78be290270a92a9282aa57ddcd1e8d71bcf8d931dfde0aa61244301514c4c6321036d6e6cf57a88d39fee39b88721dcd5afbb18e5d078888293eaf5eee2fbc4cd36ac6751b27521036d6e6cf57a88d39fee39b88721dcd5afbb18e5d078888293eaf5eee2fbc4cd36ac68ffffffff015ccf0e00000000001976a914329ecab2c7fc540c96295a507a367a46a0ee649488ac00000000",
      "addresses": [
        "2MuoYPAcYpDwvf5mpsYtxsYajnchYwJY1w7",
        "mk8cJh83q2JKBNguuzamfN1LZ9aECtnVJ7"
      ],
      "total": 970588,
      "fees": 29412,
      "size": 237,
      "preference": "low",
      "confirmed": "2018-01-02T01:45:20Z",
      "received": "2018-01-02T01:45:20Z",
      "ver": 2,
      "double_spend": false,
      "vin_sz": 1,
      "vout_sz": 1,
      "confirmations": 18,
      "confidence": 1,
      "inputs": [
        {
          "prev_hash": "095ee2d0a82a9e93a11e946616f3ad503aa3caf26d2259da31daa977cf2529c5",
          "output_index": 3,
          "script": "483045022100ac368ec973aebf89ff66cfa157afa87cf2672ca54bdc83075df0286a8f28ef9402200446a314fdb78be290270a92a9282aa57ddcd1e8d71bcf8d931dfde0aa61244301514c4c6321036d6e6cf57a88d39fee39b88721dcd5afbb18e5d078888293eaf5eee2fbc4cd36ac6751b27521036d6e6cf57a88d39fee39b88721dcd5afbb18e5d078888293eaf5eee2fbc4cd36ac68",
          "output_value": 1000000,
          "sequence": 4294967295,
          "addresses": [
            "2MuoYPAcYpDwvf5mpsYtxsYajnchYwJY1w7"
          ],
          "script_type": "pay-to-script-hash",
          "age": 1257055
        }
      ],
      "outputs": [
        {
          "value": 970588,
          "script": "76a914329ecab2c7fc540c96295a507a367a46a0ee649488ac",
          "addresses": [
            "mk8cJh83q2JKBNguuzamfN1LZ9aECtnVJ7"
          ],
          "script_type": "pay-to-pubkey-hash"
        }
      ]
    },
    {
      "block_hash": "00000000c276b146ce483963c742d316f5ccd3fea562cfb952643a47e6c984b5",
      "block_height": 1257055,
      "block_index": 42,
      "hash": "095ee2d0a82a9e93a11e946616f3ad503aa3caf26d2259da31daa977cf2529c5",
      "hex": "01000000031eec413c6c410282174ff6988a246507f631acb35a5528011d38b0bb2541a790000000006a47304402204c046dd6b9d4379c00a111d8f2299224b50dad667e087fbf415c8701b099ddde022007ec74c9b4454b8aff4c15fd6ac63d9c463859f2321261f93f266d6dffb968330121036d6e6cf57a88d39fee39b88721dcd5afbb18e5d078888293eaf5eee2fbc4cd36ffffffff21c6b73ba71a5828be8c3b5da3360503b22f74ed36118d9920a4e1dc914f4441020000006b483045022100e0aa5fc739e0e38d03d12613ff7c1c96eca54ba8e036c129f0f35323b62cddd102201b5b54be4a9ae77930ef9f6012ee4c3dd54040e090cb8fd9dd7616a8836fe0750121036d6e6cf57a88d39fee39b88721dcd5afbb18e5d078888293eaf5eee2fbc4cd36ffffffff62fe927ee46c0e7726e84baab8c5a9610ea1bfe9ace0288e18857a9053e56494020000006a473044022041275d7579911d46fbf3da9a789f3f1507e7b16c6167d8757ee18d66715e7924022028b020f3ccdc790739172a6c9fc4d5b2870e9716a9f66efc4a4dcfeb3c84c9ee0121036d6e6cf57a88d39fee39b88721dcd5afbb18e5d078888293eaf5eee2fbc4cd36ffffffff050000000000000000236a21036d6e6cf57a88d39fee39b88721dcd5afbb18e5d078888293eaf5eee2fbc4cd360000000000000000086a0600017465737440420f00000000001976a914329ecab2c7fc540c96295a507a367a46a0ee649488ac40420f000000000017a9141c0cead5b1f2fcf90a3964c92173d17a3154c251877d720d00000000001976a914329ecab2c7fc540c96295a507a367a46a0ee649488ac00000000",
      "addresses": [
        "2MuoYPAcYpDwvf5mpsYtxsYajnchYwJY1w7",
        "mk8cJh83q2JKBNguuzamfN1LZ9aECtnVJ7"
      ],
      "total": 2881277,
      "fees": 76321,
      "size": 613,
      "preference": "low",
      "confirmed": "2018-01-02T01:45:20Z",
      "received": "2018-01-02T01:45:20Z",
      "ver": 1,
      "double_spend": false,
      "vin_sz": 3,
      "vout_sz": 5,
      "data_protocol": "unknown",
      "confirmations": 18,
      "confidence": 1,
      "inputs": [
        {
          "prev_hash": "90a74125bbb0381d0128555ab3ac31f60765248a98f64f178202416c3c41ec1e",
          "output_index": 0,
          "script": "47304402204c046dd6b9d4379c00a111d8f2299224b50dad667e087fbf415c8701b099ddde022007ec74c9b4454b8aff4c15fd6ac63d9c463859f2321261f93f266d6dffb968330121036d6e6cf57a88d39fee39b88721dcd5afbb18e5d078888293eaf5eee2fbc4cd36",
          "output_value": 970712,
          "sequence": 4294967295,
          "addresses": [
            "mk8cJh83q2JKBNguuzamfN1LZ9aECtnVJ7"
          ],
          "script_type": "pay-to-pubkey-hash",
          "age": 1256746
        },
        {
          "prev_hash": "41444f91dce1a420998d1136ed742fb2030536a35d3b8cbe28581aa73bb7c621",
          "output_index": 2,
          "script": "483045022100e0aa5fc739e0e38d03d12613ff7c1c96eca54ba8e036c129f0f35323b62cddd102201b5b54be4a9ae77930ef9f6012ee4c3dd54040e090cb8fd9dd7616a8836fe0750121036d6e6cf57a88d39fee39b88721dcd5afbb18e5d078888293eaf5eee2fbc4cd36",
          "output_value": 986886,
          "sequence": 4294967295,
          "addresses": [
            "mk8cJh83q2JKBNguuzamfN1LZ9aECtnVJ7"
          ],
          "script_type": "pay-to-pubkey-hash",
          "age": 1256390
        },
        {
          "prev_hash": "9464e553907a85188e28e0ace9bfa10e61a9c5b8aa4be826770e6ce47e92fe62",
          "output_index": 2,
          "script": "473044022041275d7579911d46fbf3da9a789f3f1507e7b16c6167d8757ee18d66715e7924022028b020f3ccdc790739172a6c9fc4d5b2870e9716a9f66efc4a4dcfeb3c84c9ee0121036d6e6cf57a88d39fee39b88721dcd5afbb18e5d078888293eaf5eee2fbc4cd36",
          "output_value": 1000000,
          "sequence": 4294967295,
          "addresses": [
            "mk8cJh83q2JKBNguuzamfN1LZ9aECtnVJ7"
          ],
          "script_type": "pay-to-pubkey-hash",
          "age": 1256746
        }
      ],
      "outputs": [
        {
          "value": 0,
          "script": "6a21036d6e6cf57a88d39fee39b88721dcd5afbb18e5d078888293eaf5eee2fbc4cd36",
          "addresses": null,
          "script_type": "null-data",
          "data_hex": "036d6e6cf57a88d39fee39b88721dcd5afbb18e5d078888293eaf5eee2fbc4cd36"
        },
        {
          "value": 0,
          "script": "6a06000174657374",
          "addresses": null,
          "script_type": "null-data",
          "data_hex": "000174657374"
        },
        {
          "value": 1000000,
          "script": "76a914329ecab2c7fc540c96295a507a367a46a0ee649488ac",
          "addresses": [
            "mk8cJh83q2JKBNguuzamfN1LZ9aECtnVJ7"
          ],
          "script_type": "pay-to-pubkey-hash"
        },
        {
          "value": 1000000,
          "script": "a9141c0cead5b1f2fcf90a3964c92173d17a3154c25187",
          "spent_by": "794f212860b0b2f269ace5d32f839d6abfe5b29d62e4570549dd026d1de447e9",
          "addresses": [
            "2MuoYPAcYpDwvf5mpsYtxsYajnchYwJY1w7"
          ],
          "script_type": "pay-to-script-hash"
        },
        {
          "value": 881277,
          "script": "76a914329ecab2c7fc540c96295a507a367a46a0ee649488ac",
          "addresses": [
            "mk8cJh83q2JKBNguuzamfN1LZ9aECtnVJ7"
          ],
          "script_type": "pay-to-pubkey-hash"
        }
      ]
    },
    {
      "block_hash": "00000000001378f437239456728fe8d060817af91970cc0e0a6605d1b36c2930",
      "block_height": 1256746,
      "block_index": 206,
      "hash": "90a74125bbb0381d0128555ab3ac31f60765248a98f64f178202416c3c41ec1e",
      "hex": "020000000162fe927ee46c0e7726e84baab8c5a9610ea1bfe9ace0288e18857a9053e564940300000098483045022100e4021b59efa51cf0c774f2f7a06df6a2ef47cd073a8cb2a088f587157037052c02205889983abaa8fa58b87c0890dbc1b07e036261356b2d9962a628e9e69b75cd8c01514c4c6321036d6e6cf57a88d39fee39b88721dcd5afbb18e5d078888293eaf5eee2fbc4cd36ac6751b27521036d6e6cf57a88d39fee39b88721dcd5afbb18e5d078888293eaf5eee2fbc4cd36ac68ffffffff01d8cf0e00000000001976a914329ecab2c7fc540c96295a507a367a46a0ee649488ac00000000",
      "addresses": [
        "2MuoYPAcYpDwvf5mpsYtxsYajnchYwJY1w7",
        "mk8cJh83q2JKBNguuzamfN1LZ9aECtnVJ7"
      ],
      "total": 970712,
      "fees": 29288,
      "size": 237,
      "preference": "low",
      "confirmed": "2017-12-30T00:21:06Z",
      "received": "2017-12-30T00:21:06Z",
      "ver": 2,
      "double_spend": false,
      "vin_sz": 1,
      "vout_sz": 1,
      "confirmations": 327,
      "confidence": 1,
      "inputs": [
        {
          "prev_hash": "9464e553907a85188e28e0ace9bfa10e61a9c5b8aa4be826770e6ce47e92fe62",
          "output_index": 3,
          "script": "483045022100e4021b59efa51cf0c774f2f7a06df6a2ef47cd073a8cb2a088f587157037052c02205889983abaa8fa58b87c0890dbc1b07e036261356b2d9962a628e9e69b75cd8c01514c4c6321036d6e6cf57a88d39fee39b88721dcd5afbb18e5d078888293eaf5eee2fbc4cd36ac6751b27521036d6e6cf57a88d39fee39b88721dcd5afbb18e5d078888293eaf5eee2fbc4cd36ac68",
          "output_value": 1000000,
          "sequence": 4294967295,
          "addresses": [
            "2MuoYPAcYpDwvf5mpsYtxsYajnchYwJY1w7"
          ],
          "script_type": "pay-to-script-hash",
          "age": 1256746
        }
      ],
      "outputs": [
        {
          "value": 970712,
          "script": "76a914329ecab2c7fc540c96295a507a367a46a0ee649488ac",
          "spent_by": "095ee2d0a82a9e93a11e946616f3ad503aa3caf26d2259da31daa977cf2529c5",
          "addresses": [
            "mk8cJh83q2JKBNguuzamfN1LZ9aECtnVJ7"
          ],
          "script_type": "pay-to-pubkey-hash"
        }
      ]
    },
    {
      "block_hash": "00000000001378f437239456728fe8d060817af91970cc0e0a6605d1b36c2930",
      "block_height": 1256746,
      "block_index": 205,
      "hash": "9464e553907a85188e28e0ace9bfa10e61a9c5b8aa4be826770e6ce47e92fe62",
      "hex": "01000000032a4419674b852c2c8886c30a2945cc62f1df885363a46d58d21191876a53a15d000000006a4730440220558058294295336804554195514ace63c4e3065ec2584c6864ed4615c268ef7e022065ca185738a14546552a57d246b2addb912bc53e9eda9fe3c0b352fa4e947b4b0121036d6e6cf57a88d39fee39b88721dcd5afbb18e5d078888293eaf5eee2fbc4cd36ffffffffa38629c53c64fe62a218904fc911f9516dbca9e1ea84d18cd0e7077b1c5a7ead020000006b483045022100b623fcf0d1f1c67e7ec2a021f95383638c1eba4417e0519b55e4baef7612dc450220690bc188c1ecca03817a53aada0cc6a2c2e0e2cafc3628bb43856687b08e95270121036d6e6cf57a88d39fee39b88721dcd5afbb18e5d078888293eaf5eee2fbc4cd36ffffffffb0ee04ada928a31079dd8793a6f0dbed4292a80901b1b6726445c20a1297aad2020000006a47304402202857543fa3b4a5ec4e2b0a9c5c19c9fbe25217e0d1862711103309e6e3f3406b022029b41e2f9979e0d8d1f6f67191005d2e96d68d19cc7d52806429dae5f8b810210121036d6e6cf57a88d39fee39b88721dcd5afbb18e5d078888293eaf5eee2fbc4cd36ffffffff050000000000000000236a21036d6e6cf57a88d39fee39b88721dcd5afbb18e5d078888293eaf5eee2fbc4cd360000000000000000086a0600017465737440420f00000000001976a914329ecab2c7fc540c96295a507a367a46a0ee649488ac40420f000000000017a9141c0cead5b1f2fcf90a3964c92173d17a3154c25187165a0d00000000001976a914329ecab2c7fc540c96295a507a367a46a0ee649488ac00000000",
      "addresses": [
        "2MuoYPAcYpDwvf5mpsYtxsYajnchYwJY1w7",
        "mk8cJh83q2JKBNguuzamfN1LZ9aECtnVJ7"
      ],
      "total": 2875030,
      "fees": 76321,
      "size": 613,
      "preference": "low",
      "confirmed": "2017-12-30T00:21:06Z",
      "received": "2017-12-30T00:21:06Z",
      "ver": 1,
      "double_spend": false,
      "vin_sz": 3,
      "vout_sz": 5,
      "data_protocol": "unknown",
      "confirmations": 327,
      "confidence": 1,
      "inputs": [
        {
          "prev_hash": "5da1536a879111d2586da4635388dff162cc45290ac386882c2c854b6719442a",
          "output_index": 0,
          "script": "4730440220558058294295336804554195514ace63c4e3065ec2584c6864ed4615c268ef7e022065ca185738a14546552a57d246b2addb912bc53e9eda9fe3c0b352fa4e947b4b0121036d6e6cf57a88d39fee39b88721dcd5afbb18e5d078888293eaf5eee2fbc4cd36",
          "output_value": 970588,
          "sequence": 4294967295,
          "addresses": [
            "mk8cJh83q2JKBNguuzamfN1LZ9aECtnVJ7"
          ],
          "script_type": "pay-to-pubkey-hash",
          "age": 1256742
        },
        {
          "prev_hash": "ad7e5a1c7b07e7d08cd184eae1a9bc6d51f911c94f9018a262fe643cc52986a3",
          "output_index": 2,
          "script": "483045022100b623fcf0d1f1c67e7ec2a021f95383638c1eba4417e0519b55e4baef7612dc450220690bc188c1ecca03817a53aada0cc6a2c2e0e2cafc3628bb43856687b08e95270121036d6e6cf57a88d39fee39b88721dcd5afbb18e5d078888293eaf5eee2fbc4cd36",
          "output_value": 980763,
          "sequence": 4294967295,
          "addresses": [
            "mk8cJh83q2JKBNguuzamfN1LZ9aECtnVJ7"
          ],
          "script_type": "pay-to-pubkey-hash",
          "age": 1256389
        },
        {
          "prev_hash": "d2aa97120ac2456472b6b10109a89242eddbf0a69387dd7910a328a9ad04eeb0",
          "output_index": 2,
          "script": "47304402202857543fa3b4a5ec4e2b0a9c5c19c9fbe25217e0d1862711103309e6e3f3406b022029b41e2f9979e0d8d1f6f67191005d2e96d68d19cc7d52806429dae5f8b810210121036d6e6cf57a88d39fee39b88721dcd5afbb18e5d078888293eaf5eee2fbc4cd36",
          "output_value": 1000000,
          "sequence": 4294967295,
          "addresses": [
            "mk8cJh83q2JKBNguuzamfN1LZ9aECtnVJ7"
          ],
          "script_type": "pay-to-pubkey-hash",
          "age": 1256742
        }
      ],
      "outputs": [
        {
          "value": 0,
          "script": "6a21036d6e6cf57a88d39fee39b88721dcd5afbb18e5d078888293eaf5eee2fbc4cd36",
          "addresses": null,
          "script_type": "null-data",
          "data_hex": "036d6e6cf57a88d39fee39b88721dcd5afbb18e5d078888293eaf5eee2fbc4cd36"
        },
        {
          "value": 0,
          "script": "6a06000174657374",
          "addresses": null,
          "script_type": "null-data",
          "data_hex": "000174657374"
        },
        {
          "value": 1000000,
          "script": "76a914329ecab2c7fc540c96295a507a367a46a0ee649488ac",
          "spent_by": "095ee2d0a82a9e93a11e946616f3ad503aa3caf26d2259da31daa977cf2529c5",
          "addresses": [
            "mk8cJh83q2JKBNguuzamfN1LZ9aECtnVJ7"
          ],
          "script_type": "pay-to-pubkey-hash"
        },
        {
          "value": 1000000,
          "script": "a9141c0cead5b1f2fcf90a3964c92173d17a3154c25187",
          "spent_by": "90a74125bbb0381d0128555ab3ac31f60765248a98f64f178202416c3c41ec1e",
          "addresses": [
            "2MuoYPAcYpDwvf5mpsYtxsYajnchYwJY1w7"
          ],
          "script_type": "pay-to-script-hash"
        },
        {
          "value": 875030,
          "script": "76a914329ecab2c7fc540c96295a507a367a46a0ee649488ac",
          "addresses": [
            "mk8cJh83q2JKBNguuzamfN1LZ9aECtnVJ7"
          ],
          "script_type": "pay-to-pubkey-hash"
        }
      ]
    },
    {
      "block_hash": "00000000ff6a4f671fe0d64e1b0d788b89071de831e4ef3ae471d946073435d0",
      "block_height": 1256742,
      "block_index": 40,
      "hash": "5da1536a879111d2586da4635388dff162cc45290ac386882c2c854b6719442a",
      "hex": "0200000001b0ee04ada928a31079dd8793a6f0dbed4292a80901b1b6726445c20a1297aad20300000096463043021f38c6eca9a8c83ece3e6302791f2c155a79fe65b9058affa717f72b7e4fa995022033ca7e7e3846ba1aecc065a96d584c092df4ebea62824743647d9e518237c3be01514c4c6321036d6e6cf57a88d39fee39b88721dcd5afbb18e5d078888293eaf5eee2fbc4cd36ac6751b27521036d6e6cf57a88d39fee39b88721dcd5afbb18e5d078888293eaf5eee2fbc4cd36ac68ffffffff015ccf0e00000000001976a914329ecab2c7fc540c96295a507a367a46a0ee649488ac00000000",
      "addresses": [
        "2MuoYPAcYpDwvf5mpsYtxsYajnchYwJY1w7",
        "mk8cJh83q2JKBNguuzamfN1LZ9aECtnVJ7"
      ],
      "total": 970588,
      "fees": 29412,
      "size": 235,
      "preference": "low",
      "confirmed": "2017-12-29T23:00:48Z",
      "received": "2017-12-29T23:00:48Z",
      "ver": 2,
      "double_spend": false,
      "vin_sz": 1,
      "vout_sz": 1,
      "confirmations": 331,
      "confidence": 1,
      "inputs": [
        {
          "prev_hash": "d2aa97120ac2456472b6b10109a89242eddbf0a69387dd7910a328a9ad04eeb0",
          "output_index": 3,
          "script": "463043021f38c6eca9a8c83ece3e6302791f2c155a79fe65b9058affa717f72b7e4fa995022033ca7e7e3846ba1aecc065a96d584c092df4ebea62824743647d9e518237c3be01514c4c6321036d6e6cf57a88d39fee39b88721dcd5afbb18e5d078888293eaf5eee2fbc4cd36ac6751b27521036d6e6cf57a88d39fee39b88721dcd5afbb18e5d078888293eaf5eee2fbc4cd36ac68",
          "output_value": 1000000,
          "sequence": 4294967295,
          "addresses": [
            "2MuoYPAcYpDwvf5mpsYtxsYajnchYwJY1w7"
          ],
          "script_type": "pay-to-script-hash",
          "age": 1256742
        }
      ],
      "outputs": [
        {
          "value": 970588,
          "script": "76a914329ecab2c7fc540c96295a507a367a46a0ee649488ac",
          "spent_by": "9464e553907a85188e28e0ace9bfa10e61a9c5b8aa4be826770e6ce47e92fe62",
          "addresses": [
            "mk8cJh83q2JKBNguuzamfN1LZ9aECtnVJ7"
          ],
          "script_type": "pay-to-pubkey-hash"
        }
      ]
    },
    {
      "block_hash": "00000000ff6a4f671fe0d64e1b0d788b89071de831e4ef3ae471d946073435d0",
      "block_height": 1256742,
      "block_index": 39,
      "hash": "d2aa97120ac2456472b6b10109a89242eddbf0a69387dd7910a328a9ad04eeb0",
      "hex": "010000000302633e86846ccba3db9f7a263a073a30acd020ce2e1891f9367013ee8289c650000000006a473044022005c0add94de8fd1491c4e697d70881b82abfc7ff3a8aaa82f695a7b1146e20c402205efd4a1cbddfb43cec76b0f1e020136104fb418143a2fbc026ee535cae8854900121036d6e6cf57a88d39fee39b88721dcd5afbb18e5d078888293eaf5eee2fbc4cd36ffffffff36412a40dd7fd2aae2232a461d0f374b3d777fb3ac65cb0f17756bac8e9347b7020000006a4730440220137936c6eef4d768e479fb9a3107cf770a7e2f564f170e9a8b6295f341a3a09602203689adf5c71e828cca3f51db2323e6d79450f1115a55ddf93335b25c355dd8d10121036d6e6cf57a88d39fee39b88721dcd5afbb18e5d078888293eaf5eee2fbc4cd36ffffffff838c06617c1b3b46dfb6ffcd6105db1eb85f6c447c938ba848a8aa9749fc9a17020000006a4730440220464003e8a3625025c6fdeb23b83588cfed29c95c0ea253f3b06799ef9dbdf20f02204ff82cff41af6e2c36f7188d5b0ce5257b30108e09413e63ee2f9222b6d788c80121036d6e6cf57a88d39fee39b88721dcd5afbb18e5d078888293eaf5eee2fbc4cd36ffffffff050000000000000000236a21036d6e6cf57a88d39fee39b88721dcd5afbb18e5d078888293eaf5eee2fbc4cd360000000000000000066a047465737440420f00000000001976a914329ecab2c7fc540c96295a507a367a46a0ee649488ac40420f000000000017a9141c0cead5b1f2fcf90a3964c92173d17a3154c2518775730d00000000001976a914329ecab2c7fc540c96295a507a367a46a0ee649488ac00000000",
      "addresses": [
        "2MuoYPAcYpDwvf5mpsYtxsYajnchYwJY1w7",
        "mk8cJh83q2JKBNguuzamfN1LZ9aECtnVJ7"
      ],
      "total": 2881525,
      "fees": 76073,
      "size": 610,
      "preference": "low",
      "relayed_by": "138.68.23.64:18333",
      "confirmed": "2017-12-29T23:00:48Z",
      "received": "2017-12-29T22:59:43.273Z",
      "ver": 1,
      "double_spend": false,
      "vin_sz": 3,
      "vout_sz": 5,
      "data_protocol": "unknown",
      "confirmations": 331,
      "confidence": 1,
      "inputs": [
        {
          "prev_hash": "50c68982ee137036f991182ece20d0ac303a073a267a9fdba3cb6c84863e6302",
          "output_index": 0,
          "script": "473044022005c0add94de8fd1491c4e697d70881b82abfc7ff3a8aaa82f695a7b1146e20c402205efd4a1cbddfb43cec76b0f1e020136104fb418143a2fbc026ee535cae8854900121036d6e6cf57a88d39fee39b88721dcd5afbb18e5d078888293eaf5eee2fbc4cd36",
          "output_value": 970712,
          "sequence": 4294967295,
          "addresses": [
            "mk8cJh83q2JKBNguuzamfN1LZ9aECtnVJ7"
          ],
          "script_type": "pay-to-pubkey-hash",
          "age": 1256602
        },
        {
          "prev_hash": "b747938eac6b75170fcb65acb37f773d4b370f1d462a23e2aad27fdd402a4136",
          "output_index": 2,
          "script": "4730440220137936c6eef4d768e479fb9a3107cf770a7e2f564f170e9a8b6295f341a3a09602203689adf5c71e828cca3f51db2323e6d79450f1115a55ddf93335b25c355dd8d10121036d6e6cf57a88d39fee39b88721dcd5afbb18e5d078888293eaf5eee2fbc4cd36",
          "output_value": 986886,
          "sequence": 4294967295,
          "addresses": [
            "mk8cJh83q2JKBNguuzamfN1LZ9aECtnVJ7"
          ],
          "script_type": "pay-to-pubkey-hash",
          "age": 1256294
        },
        {
          "prev_hash": "179afc4997aaa848a88b937c446c5fb81edb0561cdffb6df463b1b7c61068c83",
          "output_index": 2,
          "script": "4730440220464003e8a3625025c6fdeb23b83588cfed29c95c0ea253f3b06799ef9dbdf20f02204ff82cff41af6e2c36f7188d5b0ce5257b30108e09413e63ee2f9222b6d788c80121036d6e6cf57a88d39fee39b88721dcd5afbb18e5d078888293eaf5eee2fbc4cd36",
          "output_value": 1000000,
          "sequence": 4294967295,
          "addresses": [
            "mk8cJh83q2JKBNguuzamfN1LZ9aECtnVJ7"
          ],
          "script_type": "pay-to-pubkey-hash",
          "age": 1256602
        }
      ],
      "outputs": [
        {
          "value": 0,
          "script": "6a21036d6e6cf57a88d39fee39b88721dcd5afbb18e5d078888293eaf5eee2fbc4cd36",
          "addresses": null,
          "script_type": "null-data",
          "data_hex": "036d6e6cf57a88d39fee39b88721dcd5afbb18e5d078888293eaf5eee2fbc4cd36"
        },
        {
          "value": 0,
          "script": "6a0474657374",
          "addresses": null,
          "script_type": "null-data",
          "data_hex": "74657374",
          "data_string": "test"
        },
        {
          "value": 1000000,
          "script": "76a914329ecab2c7fc540c96295a507a367a46a0ee649488ac",
          "spent_by": "9464e553907a85188e28e0ace9bfa10e61a9c5b8aa4be826770e6ce47e92fe62",
          "addresses": [
            "mk8cJh83q2JKBNguuzamfN1LZ9aECtnVJ7"
          ],
          "script_type": "pay-to-pubkey-hash"
        },
        {
          "value": 1000000,
          "script": "a9141c0cead5b1f2fcf90a3964c92173d17a3154c25187",
          "spent_by": "5da1536a879111d2586da4635388dff162cc45290ac386882c2c854b6719442a",
          "addresses": [
            "2MuoYPAcYpDwvf5mpsYtxsYajnchYwJY1w7"
          ],
          "script_type": "pay-to-script-hash"
        },
        {
          "value": 881525,
          "script": "76a914329ecab2c7fc540c96295a507a367a46a0ee649488ac",
          "addresses": [
            "mk8cJh83q2JKBNguuzamfN1LZ9aECtnVJ7"
          ],
          "script_type": "pay-to-pubkey-hash"
        }
      ]
    },
    {
      "block_hash": "00000000000005eba21924eb4b4009067339ba0acf90d718bf3316b65ec3205b",
      "block_height": 1256602,
      "block_index": 16,
      "hash": "50c68982ee137036f991182ece20d0ac303a073a267a9fdba3cb6c84863e6302",
      "hex": "0200000001838c06617c1b3b46dfb6ffcd6105db1eb85f6c447c938ba848a8aa9749fc9a170300000098483045022100e36edc95739dcd4f8e8c5ebe9f37e9b1064f3d069adb871692e6a845fbc005bf022034d49cb40c89368802ec4047d29e70e637ea41823952ad6899a036ec5c50e64801514c4c6321036d6e6cf57a88d39fee39b88721dcd5afbb18e5d078888293eaf5eee2fbc4cd36ac6751b27521036d6e6cf57a88d39fee39b88721dcd5afbb18e5d078888293eaf5eee2fbc4cd36ac68ffffffff01d8cf0e00000000001976a914329ecab2c7fc540c96295a507a367a46a0ee649488ac00000000",
      "addresses": [
        "2MuoYPAcYpDwvf5mpsYtxsYajnchYwJY1w7",
        "mk8cJh83q2JKBNguuzamfN1LZ9aECtnVJ7"
      ],
      "total": 970712,
      "fees": 29288,
      "size": 237,
      "preference": "low",
      "confirmed": "2017-12-29T00:42:51Z",
      "received": "2017-12-29T00:42:51Z",
      "ver": 2,
      "double_spend": false,
      "vin_sz": 1,
      "vout_sz": 1,
      "confirmations": 471,
      "confidence": 1,
      "inputs": [
        {
          "prev_hash": "179afc4997aaa848a88b937c446c5fb81edb0561cdffb6df463b1b7c61068c83",
          "output_index": 3,
          "script": "483045022100e36edc95739dcd4f8e8c5ebe9f37e9b1064f3d069adb871692e6a845fbc005bf022034d49cb40c89368802ec4047d29e70e637ea41823952ad6899a036ec5c50e64801514c4c6321036d6e6cf57a88d39fee39b88721dcd5afbb18e5d078888293eaf5eee2fbc4cd36ac6751b27521036d6e6cf57a88d39fee39b88721dcd5afbb18e5d078888293eaf5eee2fbc4cd36ac68",
          "output_value": 1000000,
          "sequence": 4294967295,
          "addresses": [
            "2MuoYPAcYpDwvf5mpsYtxsYajnchYwJY1w7"
          ],
          "script_type": "pay-to-script-hash",
          "age": 1256602
        }
      ],
      "outputs": [
        {
          "value": 970712,
          "script": "76a914329ecab2c7fc540c96295a507a367a46a0ee649488ac",
          "spent_by": "d2aa97120ac2456472b6b10109a89242eddbf0a69387dd7910a328a9ad04eeb0",
          "addresses": [
            "mk8cJh83q2JKBNguuzamfN1LZ9aECtnVJ7"
          ],
          "script_type": "pay-to-pubkey-hash"
        }
      ]
    },
    {
      "block_hash": "00000000000005eba21924eb4b4009067339ba0acf90d718bf3316b65ec3205b",
      "block_height": 1256602,
      "block_index": 15,
      "hash": "179afc4997aaa848a88b937c446c5fb81edb0561cdffb6df463b1b7c61068c83",
      "hex": "01000000024c9f141a00d4af549a89f8fb9d45c62e89cc1e494175f67b6d6e8af7a75b3e79000000006a473044022035443b70072c48255e740dcb88f724c54ae7043eadf417eff3362172c1cf00cd02201bf0a144854ee7d628c2d4681ccdcde6e923e4ede4c57088ab5564bc6d52e82d0121036d6e6cf57a88d39fee39b88721dcd5afbb18e5d078888293eaf5eee2fbc4cd36ffffffffbe1f2f0d32fcbd4dac4c0c806ec78663ac4de8c60a2510ac8534837733b0b371040000006b483045022100b59d9aa71b1830e7aec888b2d0f44a63f325c8273d31ecbb9cee3a3ebf4627db022025b91d7d91ce5a032538b4441b41504cfe73f73fc4ec4cbf38fbc8bd4e9540750121036d6e6cf57a88d39fee39b88721dcd5afbb18e5d078888293eaf5eee2fbc4cd36ffffffff050000000000000000236a21036d6e6cf57a88d39fee39b88721dcd5afbb18e5d078888293eaf5eee2fbc4cd360000000000000000066a047465737440420f00000000001976a914329ecab2c7fc540c96295a507a367a46a0ee649488ac40420f000000000017a9141c0cead5b1f2fcf90a3964c92173d17a3154c2518764920710000000001976a914329ecab2c7fc540c96295a507a367a46a0ee649488ac00000000",
      "addresses": [
        "2MuoYPAcYpDwvf5mpsYtxsYajnchYwJY1w7",
        "mk8cJh83q2JKBNguuzamfN1LZ9aECtnVJ7"
      ],
      "total": 270931684,
      "fees": 57707,
      "size": 464,
      "preference": "low",
      "relayed_by": "34.252.206.162:18333",
      "confirmed": "2017-12-29T00:42:51Z",
      "received": "2017-12-29T00:39:06.395Z",
      "ver": 1,
      "double_spend": false,
      "vin_sz": 2,
      "vout_sz": 5,
      "data_protocol": "unknown",
      "confirmations": 471,
      "confidence": 1,
      "inputs": [
        {
          "prev_hash": "793e5ba7f78a6e6d7bf67541491ecc892ec6459dfbf8899a54afd4001a149f4c",
          "output_index": 0,
          "script": "473044022035443b70072c48255e740dcb88f724c54ae7043eadf417eff3362172c1cf00cd02201bf0a144854ee7d628c2d4681ccdcde6e923e4ede4c57088ab5564bc6d52e82d0121036d6e6cf57a88d39fee39b88721dcd5afbb18e5d078888293eaf5eee2fbc4cd36",
          "output_value": 951477,
          "sequence": 4294967295,
          "addresses": [
            "mk8cJh83q2JKBNguuzamfN1LZ9aECtnVJ7"
          ],
          "script_type": "pay-to-pubkey-hash",
          "age": 1256523
        },
        {
          "prev_hash": "71b3b03377833485ac10250ac6e84dac6386c76e800c4cac4dbdfc320d2f1fbe",
          "output_index": 4,
          "script": "483045022100b59d9aa71b1830e7aec888b2d0f44a63f325c8273d31ecbb9cee3a3ebf4627db022025b91d7d91ce5a032538b4441b41504cfe73f73fc4ec4cbf38fbc8bd4e9540750121036d6e6cf57a88d39fee39b88721dcd5afbb18e5d078888293eaf5eee2fbc4cd36",
          "output_value": 270037914,
          "sequence": 4294967295,
          "addresses": [
            "mk8cJh83q2JKBNguuzamfN1LZ9aECtnVJ7"
          ],
          "script_type": "pay-to-pubkey-hash",
          "age": 1256523
        }
      ],
      "outputs": [
        {
          "value": 0,
          "script": "6a21036d6e6cf57a88d39fee39b88721dcd5afbb18e5d078888293eaf5eee2fbc4cd36",
          "addresses": null,
          "script_type": "null-data",
          "data_hex": "036d6e6cf57a88d39fee39b88721dcd5afbb18e5d078888293eaf5eee2fbc4cd36"
        },
        {
          "value": 0,
          "script": "6a0474657374",
          "addresses": null,
          "script_type": "null-data",
          "data_hex": "74657374",
          "data_string": "test"
        },
        {
          "value": 1000000,
          "script": "76a914329ecab2c7fc540c96295a507a367a46a0ee649488ac",
          "spent_by": "d2aa97120ac2456472b6b10109a89242eddbf0a69387dd7910a328a9ad04eeb0",
          "addresses": [
            "mk8cJh83q2JKBNguuzamfN1LZ9aECtnVJ7"
          ],
          "script_type": "pay-to-pubkey-hash"
        },
        {
          "value": 1000000,
          "script": "a9141c0cead5b1f2fcf90a3964c92173d17a3154c25187",
          "spent_by": "50c68982ee137036f991182ece20d0ac303a073a267a9fdba3cb6c84863e6302",
          "addresses": [
            "2MuoYPAcYpDwvf5mpsYtxsYajnchYwJY1w7"
          ],
          "script_type": "pay-to-script-hash"
        },
        {
          "value": 268931684,
          "script": "76a914329ecab2c7fc540c96295a507a367a46a0ee649488ac",
          "spent_by": "77c650e4e3e01f43360cc1ea1d0ec4ebaa0842cfd9b976424e15d2e3714ce15e",
          "addresses": [
            "mk8cJh83q2JKBNguuzamfN1LZ9aECtnVJ7"
          ],
          "script_type": "pay-to-pubkey-hash"
        }
      ]
    }
  ]
}