{
  "address": "n4QGUi9Ds29DBcN8MdPcHwb3rt3uh8NLHw",
  "total_received": 82000000,
  "total_sent": 2079548,
  "balance": 79920452,
  "unconfirmed_balance": 0,
  "final_balance": 79920452,
  "n_tx": 5,
  "unconfirmed_n_tx": 0,
  "final_n_tx": 5,
  "txs": [
    {
      "block_hash": "0000000009fdb7c0271de592c3c408bf62aa7c9ef8d65781887cf7bd46308e7e",
      "block_height": 1257493,
      "block_index": 150,
      "hash": "e44e83b7f9debd9a92d2271aebb974aac73483e469d4588fdd8013119c9b0160",
      "hex": "01000000012d90c46a8ef7c28c447c2b7ce933b8455c02eddade7b31751b1e7b9bb9377d62040000006b483045022100fd94b05325da3818bb6096b6edbc2a4a799fb1b687e2566cf37be981518563a1022074366d041ad6f9f5de89c5bf32821b9b666acb1b8096a5f6cfb9be88898f8517012103f000da94f60417c76832179fd82ebfc614f5df9e67ffbc1717542ec460e8054cffffffff050000000000000000236a2103f000da94f60417c76832179fd82ebfc614f5df9e67ffbc1717542ec460e8054c00000000000000000a6a08005063686565636840420f00000000001976a914fb072909bc9f256d5ad8b77c4c64398fff39201a88ac40420f000000000017a9149e91dd0f96f81fc335f1cbb17eea73a3a53668e88744748604000000001976a914fb072909bc9f256d5ad8b77c4c64398fff39201a88ac00000000",
      "addresses": [
        "2N7hfVNJgeLwQCvVVEbA8RKATy2mabwAnd4",
        "n4QGUi9Ds29DBcN8MdPcHwb3rt3uh8NLHw"
      ],
      "total": 77920452,
      "fees": 39836,
      "size": 321,
      "preference": "low",
      "relayed_by": "108.14.111.173",
      "confirmed": "2018-01-05T07:54:53Z",
      "received": "2018-01-05T07:37:13.482Z",
      "ver": 1,
      "double_spend": false,
      "vin_sz": 1,
      "vout_sz": 5,
      "data_protocol": "unknown",
      "confirmations": 2,
      "confidence": 1,
      "inputs": [
        {
          "prev_hash": "627d37b99b7b1e1b75317bdedaed025c45b833e97c2b7c448cc2f78e6ac4902d",
          "output_index": 4,
          "script": "483045022100fd94b05325da3818bb6096b6edbc2a4a799fb1b687e2566cf37be981518563a1022074366d041ad6f9f5de89c5bf32821b9b666acb1b8096a5f6cfb9be88898f8517012103f000da94f60417c76832179fd82ebfc614f5df9e67ffbc1717542ec460e8054c",
          "output_value": 77960288,
          "sequence": 4294967295,
          "addresses": [
            "n4QGUi9Ds29DBcN8MdPcHwb3rt3uh8NLHw"
          ],
          "script_type": "pay-to-pubkey-hash",
          "age": 1257477
        }
      ],
      "outputs": [
        {
          "value": 0,
          "script": "6a2103f000da94f60417c76832179fd82ebfc614f5df9e67ffbc1717542ec460e8054c",
          "addresses": null,
          "script_type": "null-data",
          "data_hex": "03f000da94f60417c76832179fd82ebfc614f5df9e67ffbc1717542ec460e8054c"
        },
        {
          "value": 0,
          "script": "6a080050636865656368",
          "addresses": null,
          "script_type": "null-data",
          "data_hex": "0050636865656368"
        },
        {
          "value": 1000000,
          "script": "76a914fb072909bc9f256d5ad8b77c4c64398fff39201a88ac",
          "addresses": [
            "n4QGUi9Ds29DBcN8MdPcHwb3rt3uh8NLHw"
          ],
          "script_type": "pay-to-pubkey-hash"
        },
        {
          "value": 1000000,
          "script": "a9149e91dd0f96f81fc335f1cbb17eea73a3a53668e887",
          "addresses": [
            "2N7hfVNJgeLwQCvVVEbA8RKATy2mabwAnd4"
          ],
          "script_type": "pay-to-script-hash"
        },
        {
          "value": 75920452,
          "script": "76a914fb072909bc9f256d5ad8b77c4c64398fff39201a88ac",
          "addresses": [
            "n4QGUi9Ds29DBcN8MdPcHwb3rt3uh8NLHw"
          ],
          "script_type": "pay-to-pubkey-hash"
        }
      ]
    },
    {
      "block_hash": "0000000009fdb7c0271de592c3c408bf62aa7c9ef8d65781887cf7bd46308e7e",
      "block_height": 1257493,
      "block_index": 149,
      "hash": "f4f7caa5bacbf720fa5faa27234401b0c548289a1659a819c2d6f327131ae951",
      "hex": "010000000176f02ec5c09fe550b4e07df4f38edebf1d71dcad87afd657a33efb9a65b8539f010000006a473044022032d0dc3a529dd48feaf211c21f7672092692d091d90002764fbcbd2407f4371302203f08b6575c538c29cf8485b3b39e24884d7c1b562994e9620956e406a3fedfb10121036d6e6cf57a88d39fee39b88721dcd5afbb18e5d078888293eaf5eee2fbc4cd36ffffffff050000000000000000236a21036d6e6cf57a88d39fee39b88721dcd5afbb18e5d078888293eaf5eee2fbc4cd3600000000000000000a6a08005063686565636840420f00000000001976a914fb072909bc9f256d5ad8b77c4c64398fff39201a88ac40420f000000000017a914966c79505618b76bf53a48ce8ba8a3ca5ea2a468873ca5e807000000001976a914329ecab2c7fc540c96295a507a367a46a0ee649488ac00000000",
      "addresses": [
        "2N6xbHxQ9W5pg1hss1sLC3KBfhXUf9jTUre",
        "mk8cJh83q2JKBNguuzamfN1LZ9aECtnVJ7",
        "n4QGUi9Ds29DBcN8MdPcHwb3rt3uh8NLHw"
      ],
      "total": 134687164,
      "fees": 39836,
      "size": 320,
      "preference": "low",
      "relayed_by": "108.14.111.173",
      "confirmed": "2018-01-05T07:54:53Z",
      "received": "2018-01-05T07:37:21.138Z",
      "ver": 1,
      "double_spend": false,
      "vin_sz": 1,
      "vout_sz": 5,
      "data_protocol": "unknown",
      "confirmations": 2,
      "confidence": 1,
      "inputs": [
        {
          "prev_hash": "9f53b8659afb3ea357d6af87addc711dbfde8ef3f47de0b450e59fc0c52ef076",
          "output_index": 1,
          "script": "473044022032d0dc3a529dd48feaf211c21f7672092692d091d90002764fbcbd2407f4371302203f08b6575c538c29cf8485b3b39e24884d7c1b562994e9620956e406a3fedfb10121036d6e6cf57a88d39fee39b88721dcd5afbb18e5d078888293eaf5eee2fbc4cd36",
          "output_value": 134727000,
          "sequence": 4294967295,
          "addresses": [
            "mk8cJh83q2JKBNguuzamfN1LZ9aECtnVJ7"
          ],
          "script_type": "pay-to-pubkey-hash",
          "age": 1257476
        }
      ],
      "outputs": [
        {
          "value": 0,
          "script": "6a21036d6e6cf57a88d39fee39b88721dcd5afbb18e5d078888293eaf5eee2fbc4cd36",
          "addresses": null,
          "script_type": "null-data",
          "data_hex": "036d6e6cf57a88d39fee39b88721dcd5afbb18e5d078888293eaf5eee2fbc4cd36"
        },
        {
          "value": 0,
          "script": "6a080050636865656368",
          "addresses": null,
          "script_type": "null-data",
          "data_hex": "0050636865656368"
        },
        {
          "value": 1000000,
          "script": "76a914fb072909bc9f256d5ad8b77c4c64398fff39201a88ac",
          "addresses": [
            "n4QGUi9Ds29DBcN8MdPcHwb3rt3uh8NLHw"
          ],
          "script_type": "pay-to-pubkey-hash"
        },
        {
          "value": 1000000,
          "script": "a914966c79505618b76bf53a48ce8ba8a3ca5ea2a46887",
          "addresses": [
            "2N6xbHxQ9W5pg1hss1sLC3KBfhXUf9jTUre"
          ],
          "script_type": "pay-to-script-hash"
        },
        {
          "value": 132687164,
          "script": "76a914329ecab2c7fc540c96295a507a367a46a0ee649488ac",
          "addresses": [
            "mk8cJh83q2JKBNguuzamfN1LZ9aECtnVJ7"
          ],
          "script_type": "pay-to-pubkey-hash"
        }
      ]
    },
    {
      "block_hash": "000000000000008acbd913e24a1d7205f4dc5df300a3d2f6ab1e328f7a3043ac",
      "block_height": 1257477,
      "block_index": 20,
      "hash": "627d37b99b7b1e1b75317bdedaed025c45b833e97c2b7c448cc2f78e6ac4902d",
      "hex": "010000000176f02ec5c09fe550b4e07df4f38edebf1d71dcad87afd657a33efb9a65b8539f000000006b48304502210091c22df8598af838e35d3d88cfe4a7e40a9c169681f4f2d163eced93f1c8c306022045201282da04ac535f126c1f454966eef51b4dc70d905b88878ad4dc29fe72f8012103f000da94f60417c76832179fd82ebfc614f5df9e67ffbc1717542ec460e8054cffffffff050000000000000000236a2103f000da94f60417c76832179fd82ebfc614f5df9e67ffbc1717542ec460e8054c0000000000000000096a070050626570697340420f00000000001976a914fb072909bc9f256d5ad8b77c4c64398fff39201a88ac40420f000000000017a9149e91dd0f96f81fc335f1cbb17eea73a3a53668e8876094a504000000001976a914fb072909bc9f256d5ad8b77c4c64398fff39201a88ac00000000",
      "addresses": [
        "2N7hfVNJgeLwQCvVVEbA8RKATy2mabwAnd4",
        "n4QGUi9Ds29DBcN8MdPcHwb3rt3uh8NLHw"
      ],
      "total": 79960288,
      "fees": 39712,
      "size": 320,
      "preference": "low",
      "relayed_by": "108.14.111.173",
      "confirmed": "2018-01-05T04:38:47Z",
      "received": "2018-01-05T04:35:17.639Z",
      "ver": 1,
      "double_spend": false,
      "vin_sz": 1,
      "vout_sz": 5,
      "data_protocol": "unknown",
      "confirmations": 18,
      "confidence": 1,
      "inputs": [
        {
          "prev_hash": "9f53b8659afb3ea357d6af87addc711dbfde8ef3f47de0b450e59fc0c52ef076",
          "output_index": 0,
          "script": "48304502210091c22df8598af838e35d3d88cfe4a7e40a9c169681f4f2d163eced93f1c8c306022045201282da04ac535f126c1f454966eef51b4dc70d905b88878ad4dc29fe72f8012103f000da94f60417c76832179fd82ebfc614f5df9e67ffbc1717542ec460e8054c",
          "output_value": 80000000,
          "sequence": 4294967295,
          "addresses": [
            "n4QGUi9Ds29DBcN8MdPcHwb3rt3uh8NLHw"
          ],
          "script_type": "pay-to-pubkey-hash",
          "age": 1257476
        }
      ],
      "outputs": [
        {
          "value": 0,
          "script": "6a2103f000da94f60417c76832179fd82ebfc614f5df9e67ffbc1717542ec460e8054c",
          "addresses": null,
          "script_type": "null-data",
          "data_hex": "03f000da94f60417c76832179fd82ebfc614f5df9e67ffbc1717542ec460e8054c"
        },
        {
          "value": 0,
          "script": "6a0700506265706973",
          "addresses": null,
          "script_type": "null-data",
          "data_hex": "00506265706973"
        },
        {
          "value": 1000000,
          "script": "76a914fb072909bc9f256d5ad8b77c4c64398fff39201a88ac",
          "addresses": [
            "n4QGUi9Ds29DBcN8MdPcHwb3rt3uh8NLHw"
          ],
          "script_type": "pay-to-pubkey-hash"
        },
        {
          "value": 1000000,
          "script": "a9149e91dd0f96f81fc335f1cbb17eea73a3a53668e887",
          "addresses": [
            "2N7hfVNJgeLwQCvVVEbA8RKATy2mabwAnd4"
          ],
          "script_type": "pay-to-script-hash"
        },
        {
          "value": 77960288,
          "script": "76a914fb072909bc9f256d5ad8b77c4c64398fff39201a88ac",
          "spent_by": "e44e83b7f9debd9a92d2271aebb974aac73483e469d4588fdd8013119c9b0160",
          "addresses": [
            "n4QGUi9Ds29DBcN8MdPcHwb3rt3uh8NLHw"
          ],
          "script_type": "pay-to-pubkey-hash"
        }
      ]
    },
    {
      "block_hash": "0000000000266e42b1dd47b806d5bcaeb76705d74ced79b36ca59865c020a2fb",
      "block_height": 1257476,
      "block_index": 103,
      "hash": "9f53b8659afb3ea357d6af87addc711dbfde8ef3f47de0b450e59fc0c52ef076",
      "hex": "0100000001bfd448a9a774c886c6476b2719c8dd1c93a89c6655a0d21ac47636c241b95939040000006b483045022100c304ce9fe2d780c7227a1f58e03c202e62ea673bd1db576dfb0a7ecffcc54a1a02202b6a1994357ff5a032c781dece8ba7454251952bda97238f4e34029d18f89c390121036d6e6cf57a88d39fee39b88721dcd5afbb18e5d078888293eaf5eee2fbc4cd36fdffffff0200b4c404000000001976a914fb072909bc9f256d5ad8b77c4c64398fff39201a88ac58c50708000000001976a914329ecab2c7fc540c96295a507a367a46a0ee649488ac03301300",
      "addresses": [
        "mk8cJh83q2JKBNguuzamfN1LZ9aECtnVJ7",
        "n4QGUi9Ds29DBcN8MdPcHwb3rt3uh8NLHw"
      ],
      "total": 214727000,
      "fees": 254,
      "size": 226,
      "preference": "low",
      "relayed_by": "52.201.232.171:18333",
      "confirmed": "2018-01-05T04:21:42Z",
      "received": "2018-01-05T04:05:13.004Z",
      "ver": 1,
      "lock_time": 1257475,
      "double_spend": false,
      "vin_sz": 1,
      "vout_sz": 2,
      "opt_in_rbf": true,
      "confirmations": 19,
      "confidence": 1,
      "inputs": [
        {
          "prev_hash": "3959b941c23676c41ad2a055669ca8931cddc819276b47c686c874a7a948d4bf",
          "output_index": 4,
          "script": "483045022100c304ce9fe2d780c7227a1f58e03c202e62ea673bd1db576dfb0a7ecffcc54a1a02202b6a1994357ff5a032c781dece8ba7454251952bda97238f4e34029d18f89c390121036d6e6cf57a88d39fee39b88721dcd5afbb18e5d078888293eaf5eee2fbc4cd36",
          "output_value": 214727254,
          "sequence": 4294967293,
          "addresses": [
            "mk8cJh83q2JKBNguuzamfN1LZ9aECtnVJ7"
          ],
          "script_type": "pay-to-pubkey-hash",
          "age": 1257128
        }
      ],
      "outputs": [
        {
          "value": 80000000,
          "script": "76a914fb072909bc9f256d5ad8b77c4c64398fff39201a88ac",
          "spent_by": "627d37b99b7b1e1b75317bdedaed025c45b833e97c2b7c448cc2f78e6ac4902d",
          "addresses": [
            "n4QGUi9Ds29DBcN8MdPcHwb3rt3uh8NLHw"
          ],
          "script_type": "pay-to-pubkey-hash"
        },
        {
          "value": 134727000,
          "script": "76a914329ecab2c7fc540c96295a507a367a46a0ee649488ac",
          "spent_by": "f4f7caa5bacbf720fa5faa27234401b0c548289a1659a819c2d6f327131ae951",
          "addresses": [
            "mk8cJh83q2JKBNguuzamfN1LZ9aECtnVJ7"
          ],
          "script_type": "pay-to-pubkey-hash"
        }
      ]
    },
    {
      "block_hash": "000000000000036b6d00499fb5f0f2e9338c522beac7f990c5fd1eb21606a2c9",
      "block_height": 1257475,
      "block_index": 42,
      "hash": "36dde07add46748ae3a45ae9ace347743fc3ad9cd958f36f3dfdc36d848f02c1",
      "hex": "01000000044bbbae82e589248ae2ffdee43621db536727130f2f8f61388106ec7c8ed15ec4040000006a47304402200fd720019367534f522068239e862dd5f2fa33fd7442ce1d32340be9bb444ce902204938b13aa817e392712ba08025d50ee02e56880efb51a13583c78baec56405fa0121036d6e6cf57a88d39fee39b88721dcd5afbb18e5d078888293eaf5eee2fbc4cd36ffffffffe947e41d6d02dd490557e4629db2e5bf6a9d832fd3e5ac69f2b2b06028214f79000000006a4730440220323322f70b4afb48b3fbe7e407f5c1b485e2cc598f658917f7b636d4c41b6b4b0220162634322849f101e2659d1ac216c4e05850d5c1989dbf0e063dd2383c420de80121036d6e6cf57a88d39fee39b88721dcd5afbb18e5d078888293eaf5eee2fbc4cd36ffffffff4f591b94f034d154c2bf25cbb85b323fbee66205ed3ffbc619ed04901cd76d2e040000006b483045022100955f30d612b14338c87d70e7e2ac6f9e0c84ce92101e71c4ba553463ced93bc6022013153c5e489ea9402ecc29abac5f0628cce4d9a97e6274aa365d98d2f37590480121036d6e6cf57a88d39fee39b88721dcd5afbb18e5d078888293eaf5eee2fbc4cd36ffffffff20c0fb15905bf0196895c6befd8d4814f76163a00a5d993fc4780227e383fcbb000000006a473044022070e3a87b6fbee7007b4e8245793ea46dea9601f25154dc9332e7040ca02e039d02204c06cb5e64d720a93af7f070cec88aa805be190908aae32b53433d8247675da50121036d6e6cf57a88d39fee39b88721dcd5afbb18e5d078888293eaf5eee2fbc4cd36ffffffff050000000000000000236a21036d6e6cf57a88d39fee39b88721dcd5afbb18e5d078888293eaf5eee2fbc4cd360000000000000000096a07003c626570697340420f00000000001976a914fb072909bc9f256d5ad8b77c4c64398fff39201a88ac40420f000000000017a9148dc2d409be5579d587c090a69a46cb0bcbb27cd187c0d60e00000000001976a914329ecab2c7fc540c96295a507a367a46a0ee649488ac00000000",
      "addresses": [
        "2N6AnfEkG55HWb4hDyVQpkbLHWF4Yvkgkcf",
        "mk8cJh83q2JKBNguuzamfN1LZ9aECtnVJ7",
        "n4QGUi9Ds29DBcN8MdPcHwb3rt3uh8NLHw"
      ],
      "total": 2972480,
      "fees": 94812,
      "size": 761,
      "preference": "low",
      "relayed_by": "108.14.111.173",
      "confirmed": "2018-01-05T04:01:37Z",
      "received": "2018-01-05T03:57:21.79Z",
      "ver": 1,
      "double_spend": false,
      "vin_sz": 4,
      "vout_sz": 5,
      "data_protocol": "unknown",
      "confirmations": 20,
      "confidence": 1,
      "inputs": [
        {
          "prev_hash": "c45ed18e7cec068138618f2f0f13276753db2136e4deffe28a2489e582aebb4b",
          "output_index": 4,
          "script": "47304402200fd720019367534f522068239e862dd5f2fa33fd7442ce1d32340be9bb444ce902204938b13aa817e392712ba08025d50ee02e56880efb51a13583c78baec56405fa0121036d6e6cf57a88d39fee39b88721dcd5afbb18e5d078888293eaf5eee2fbc4cd36",
          "output_value": 350820,
          "sequence": 4294967295,
          "addresses": [
            "mk8cJh83q2JKBNguuzamfN1LZ9aECtnVJ7"
          ],
          "script_type": "pay-to-pubkey-hash",
          "age": 1257398
        },
        {
          "prev_hash": "794f212860b0b2f269ace5d32f839d6abfe5b29d62e4570549dd026d1de447e9",
          "output_index": 0,
          "script": "4730440220323322f70b4afb48b3fbe7e407f5c1b485e2cc598f658917f7b636d4c41b6b4b0220162634322849f101e2659d1ac216c4e05850d5c1989dbf0e063dd2383c420de80121036d6e6cf57a88d39fee39b88721dcd5afbb18e5d078888293eaf5eee2fbc4cd36",
          "output_value": 970588,
          "sequence": 4294967295,
          "addresses": [
            "mk8cJh83q2JKBNguuzamfN1LZ9aECtnVJ7"
          ],
          "script_type": "pay-to-pubkey-hash",
          "age": 1257055
        },
        {
          "prev_hash": "2e6dd71c9004ed19c6fb3fed0562e6be3f325bb8cb25bfc254d134f0941b594f",
          "output_index": 4,
          "script": "483045022100955f30d612b14338c87d70e7e2ac6f9e0c84ce92101e71c4ba553463ced93bc6022013153c5e489ea9402ecc29abac5f0628cce4d9a97e6274aa365d98d2f37590480121036d6e6cf57a88d39fee39b88721dcd5afbb18e5d078888293eaf5eee2fbc4cd36",
          "output_value": 775420,
          "sequence": 4294967295,
          "addresses": [
            "mk8cJh83q2JKBNguuzamfN1LZ9aECtnVJ7"
          ],
          "script_type": "pay-to-pubkey-hash",
          "age": 1257398
        },
        {
          "prev_hash": "bbfc83e3270278c43f995d0aa06361f714488dfdbec6956819f05b9015fbc020",
          "output_index": 0,
          "script": "473044022070e3a87b6fbee7007b4e8245793ea46dea9601f25154dc9332e7040ca02e039d02204c06cb5e64d720a93af7f070cec88aa805be190908aae32b53433d8247675da50121036d6e6cf57a88d39fee39b88721dcd5afbb18e5d078888293eaf5eee2fbc4cd36",
          "output_value": 970464,
          "sequence": 4294967295,
          "addresses": [
            "mk8cJh83q2JKBNguuzamfN1LZ9aECtnVJ7"
          ],
          "script_type": "pay-to-pubkey-hash",
          "age": 1257398
        }
      ],
      "outputs": [
        {
          "value": 0,
          "script": "6a21036d6e6cf57a88d39fee39b88721dcd5afbb18e5d078888293eaf5eee2fbc4cd36",
          "addresses": null,
          "script_type": "null-data",
          "data_hex": "036d6e6cf57a88d39fee39b88721dcd5afbb18e5d078888293eaf5eee2fbc4cd36"
        },
        {
          "value": 0,
          "script": "6a07003c6265706973",
          "addresses": null,
          "script_type": "null-data",
          "data_hex": "003c6265706973"
        },
        {
          "value": 1000000,
          "script": "76a914fb072909bc9f256d5ad8b77c4c64398fff39201a88ac",
          "addresses": [
            "n4QGUi9Ds29DBcN8MdPcHwb3rt3uh8NLHw"
          ],
          "script_type": "pay-to-pubkey-hash"
        },
        {
          "value": 1000000,
          "script": "a9148dc2d409be5579d587c090a69a46cb0bcbb27cd187",
          "addresses": [
            "2N6AnfEkG55HWb4hDyVQpkbLHWF4Yvkgkcf"
          ],
          "script_type": "pay-to-script-hash"
        },
        {
          "value": 972480,
          "script": "76a914329ecab2c7fc540c96295a507a367a46a0ee649488ac",
          "addresses": [
            "mk8cJh83q2JKBNguuzamfN1LZ9aECtnVJ7"
          ],
          "script_type": "pay-to-pubkey-hash"
        }
      ]
    }
  ]
}